{
  "address": "0x1DD15613435e374dcEDceDEB275dAe6Fa4DF1A01",
  "abi": [
    {
      "inputs": [
        {
          "internalType": "contract BaseRegistrarImplementation",
          "name": "_base",
          "type": "address"
        },
        {
          "internalType": "uint256",
          "name": "_basePrice",
          "type": "uint256"
        },
        {
          "internalType": "uint256",
          "name": "_minCommitmentAge",
          "type": "uint256"
        },
        {
          "internalType": "uint256",
          "name": "_maxCommitmentAge",
          "type": "uint256"
        }
      ],
      "stateMutability": "nonpayable",
      "type": "constructor"
    },
    {
      "anonymous": false,
      "inputs": [
        {
          "indexed": false,
          "internalType": "string",
          "name": "name",
          "type": "string"
        },
        {
          "indexed": true,
          "internalType": "bytes32",
          "name": "label",
          "type": "bytes32"
        },
        {
          "indexed": true,
          "internalType": "address",
          "name": "owner",
          "type": "address"
        },
        {
          "indexed": false,
          "internalType": "uint256",
          "name": "cost",
          "type": "uint256"
        },
        {
          "indexed": false,
          "internalType": "uint256",
          "name": "expires",
          "type": "uint256"
        }
      ],
      "name": "NameRegistered",
      "type": "event"
    },
    {
      "anonymous": false,
      "inputs": [
        {
          "indexed": false,
          "internalType": "string",
          "name": "name",
          "type": "string"
        },
        {
          "indexed": true,
          "internalType": "bytes32",
          "name": "label",
          "type": "bytes32"
        },
        {
          "indexed": false,
          "internalType": "uint256",
          "name": "cost",
          "type": "uint256"
        },
        {
          "indexed": false,
          "internalType": "uint256",
          "name": "expires",
          "type": "uint256"
        }
      ],
      "name": "NameRenewed",
      "type": "event"
    },
    {
      "anonymous": false,
      "inputs": [
        {
          "indexed": true,
          "internalType": "address",
          "name": "previousOwner",
          "type": "address"
        },
        {
          "indexed": true,
          "internalType": "address",
          "name": "newOwner",
          "type": "address"
        }
      ],
      "name": "OwnershipTransferred",
      "type": "event"
    },
    {
      "inputs": [],
      "name": "REGISTRATION_DURATION",
      "outputs": [
        {
          "internalType": "uint256",
          "name": "",
          "type": "uint256"
        }
      ],
      "stateMutability": "view",
      "type": "function"
    },
    {
      "inputs": [
        {
          "internalType": "string",
          "name": "name",
          "type": "string"
        }
      ],
      "name": "available",
      "outputs": [
        {
          "internalType": "bool",
          "name": "",
          "type": "bool"
        }
      ],
      "stateMutability": "view",
      "type": "function"
    },
    {
      "inputs": [],
      "name": "basePrice",
      "outputs": [
        {
          "internalType": "uint256",
          "name": "",
          "type": "uint256"
        }
      ],
      "stateMutability": "view",
      "type": "function"
    },
    {
      "inputs": [
        {
          "internalType": "bytes32",
          "name": "commitment",
          "type": "bytes32"
        }
      ],
      "name": "commit",
      "outputs": [],
      "stateMutability": "nonpayable",
      "type": "function"
    },
    {
      "inputs": [
        {
          "internalType": "bytes32",
          "name": "",
          "type": "bytes32"
        }
      ],
      "name": "commitments",
      "outputs": [
        {
          "internalType": "uint256",
          "name": "",
          "type": "uint256"
        }
      ],
      "stateMutability": "view",
      "type": "function"
    },
    {
      "inputs": [
        {
          "internalType": "string",
          "name": "name",
          "type": "string"
        },
        {
          "internalType": "address",
          "name": "owner",
          "type": "address"
        },
        {
          "internalType": "bytes32",
          "name": "secret",
          "type": "bytes32"
        },
        {
          "internalType": "address",
          "name": "resolver",
          "type": "address"
        }
      ],
      "name": "makeCommitment",
      "outputs": [
        {
          "internalType": "bytes32",
          "name": "",
          "type": "bytes32"
        }
      ],
      "stateMutability": "pure",
      "type": "function"
    },
    {
      "inputs": [],
      "name": "maxCommitmentAge",
      "outputs": [
        {
          "internalType": "uint256",
          "name": "",
          "type": "uint256"
        }
      ],
      "stateMutability": "view",
      "type": "function"
    },
    {
      "inputs": [],
      "name": "minCommitmentAge",
      "outputs": [
        {
          "internalType": "uint256",
          "name": "",
          "type": "uint256"
        }
      ],
      "stateMutability": "view",
      "type": "function"
    },
    {
      "inputs": [
        {
          "internalType": "address",
          "name": "",
          "type": "address"
        }
      ],
      "name": "mintCount",
      "outputs": [
        {
          "internalType": "uint256",
          "name": "",
          "type": "uint256"
        }
      ],
      "stateMutability": "view",
      "type": "function"
    },
    {
      "inputs": [],
      "name": "mintPerWallet",
      "outputs": [
        {
          "internalType": "uint256",
          "name": "",
          "type": "uint256"
        }
      ],
      "stateMutability": "view",
      "type": "function"
    },
    {
      "inputs": [],
      "name": "owner",
      "outputs": [
        {
          "internalType": "address",
          "name": "",
          "type": "address"
        }
      ],
      "stateMutability": "view",
      "type": "function"
    },
    {
      "inputs": [
        {
          "internalType": "string",
          "name": "name",
          "type": "string"
        },
        {
          "internalType": "address",
          "name": "owner",
          "type": "address"
        },
        {
          "internalType": "uint256",
          "name": "duration",
          "type": "uint256"
        },
        {
          "internalType": "bytes32",
          "name": "secret",
          "type": "bytes32"
        },
        {
          "internalType": "address",
          "name": "resolver",
          "type": "address"
        }
      ],
      "name": "register",
      "outputs": [],
      "stateMutability": "payable",
      "type": "function"
    },
    {
      "inputs": [
        {
          "internalType": "string",
          "name": "name",
          "type": "string"
        },
        {
          "internalType": "uint256",
          "name": "duration",
          "type": "uint256"
        }
      ],
      "name": "renew",
      "outputs": [],
      "stateMutability": "payable",
      "type": "function"
    },
    {
      "inputs": [],
      "name": "renounceOwnership",
      "outputs": [],
      "stateMutability": "nonpayable",
      "type": "function"
    },
    {
      "inputs": [
        {
          "internalType": "string",
          "name": "name",
          "type": "string"
        },
        {
          "internalType": "uint256",
          "name": "duration",
          "type": "uint256"
        }
      ],
      "name": "rentPrice",
      "outputs": [
        {
          "internalType": "uint256",
          "name": "",
          "type": "uint256"
        }
      ],
      "stateMutability": "view",
      "type": "function"
    },
    {
      "inputs": [],
      "name": "root",
      "outputs": [
        {
          "internalType": "bytes32",
          "name": "",
          "type": "bytes32"
        }
      ],
      "stateMutability": "view",
      "type": "function"
    },
    {
      "inputs": [
        {
          "internalType": "uint256",
          "name": "_price",
          "type": "uint256"
        }
      ],
      "name": "setBasePrice",
      "outputs": [],
      "stateMutability": "nonpayable",
      "type": "function"
    },
    {
      "inputs": [
        {
          "internalType": "uint256",
          "name": "_minCommitmentAge",
          "type": "uint256"
        },
        {
          "internalType": "uint256",
          "name": "_maxCommitmentAge",
          "type": "uint256"
        }
      ],
      "name": "setCommitmentAges",
      "outputs": [],
      "stateMutability": "nonpayable",
      "type": "function"
    },
    {
      "inputs": [
        {
          "internalType": "uint256",
          "name": "_mintPerWallet",
          "type": "uint256"
        }
      ],
      "name": "setMintPerWallet",
      "outputs": [],
      "stateMutability": "nonpayable",
      "type": "function"
    },
    {
      "inputs": [
        {
          "internalType": "address",
          "name": "newOwner",
          "type": "address"
        }
      ],
      "name": "transferOwnership",
      "outputs": [],
      "stateMutability": "nonpayable",
      "type": "function"
    },
    {
      "inputs": [
        {
          "internalType": "string",
          "name": "name",
          "type": "string"
        }
      ],
      "name": "valid",
      "outputs": [
        {
          "internalType": "bool",
          "name": "",
          "type": "bool"
        }
      ],
      "stateMutability": "view",
      "type": "function"
    },
    {
      "inputs": [],
      "name": "withdraw",
      "outputs": [],
      "stateMutability": "nonpayable",
      "type": "function"
    },
    {
      "inputs": [
        {
          "internalType": "address",
          "name": "receiver",
          "type": "address"
        }
      ],
      "name": "withdraw",
      "outputs": [],
      "stateMutability": "nonpayable",
      "type": "function"
    }
  ],
  "transactionHash": "0xd4b1f47b017960b5decd590979761c0da6e91ef59cb6c93f6451cab5fe228db2",
  "args": [
    "0xF9BfD3EF4c9DF50398cCC6f88B084958f0091CDc",
    "10000000000000000000",
    60,
    86400
  ],
  "solcInputHash": "87f40ff3b26dd4da665746a891520ba4",
  "bytecode": "0x608060405260646002553480156200001657600080fd5b5060405162002115380380620021158339810160408190526200003991620000c7565b620000443362000077565b600180546001600160a01b0319166001600160a01b03959095169490941790935560049190915560055560065562000114565b600080546001600160a01b038381166001600160a01b0319831681178455604051919092169283917f8be0079c531659141344cd1fd0a4f28419497f9722a3daafe3b4186f6b6457e09190a35050565b60008060008060808587031215620000de57600080fd5b84516001600160a01b0381168114620000f657600080fd5b60208601516040870151606090970151919890975090945092505050565b611ff180620001246000396000f3fe6080604052600436106101805760003560e01c80638d839ffe116100d6578063ce1e09c01161007f578063ed9ec88811610059578063ed9ec888146103e2578063f14fcbc81461040f578063f2fde38b1461042f57600080fd5b8063ce1e09c014610396578063de4b3262146103ac578063ebf0c717146103cc57600080fd5b8063acf1a841116100b0578063acf1a8411461034d578063aeb8ce9b14610360578063c7876ea41461038057600080fd5b80638d839ffe146102d25780638da5cb5b146102e85780639791c0971461031d57600080fd5b8063700c35d211610138578063839df94511610112578063839df9451461027257806383c3f2b91461029f57806383e7f6ff146102b257600080fd5b8063700c35d214610227578063715018a61461023d5780637e3244791461025257600080fd5b80633ccfd60b116101695780633ccfd60b146101da5780634c1342df146101ef57806351cff8d91461020757600080fd5b806310de19d1146101855780633801bcc3146101a7575b600080fd5b34801561019157600080fd5b506101a56101a0366004611a4f565b61044f565b005b3480156101b357600080fd5b506101c76101c2366004611b64565b61045c565b6040519081526020015b60405180910390f35b3480156101e657600080fd5b506101a5610553565b3480156101fb57600080fd5b506101c76301e1338081565b34801561021357600080fd5b506101a5610222366004611bd0565b61058a565b34801561023357600080fd5b506101c760025481565b34801561024957600080fd5b506101a56105d8565b34801561025e57600080fd5b506101a561026d366004611bf4565b6105ec565b34801561027e57600080fd5b506101c761028d366004611a4f565b60076020526000908152604090205481565b6101a56102ad366004611c16565b6105ff565b3480156102be57600080fd5b506101c76102cd366004611c8e565b61076f565b3480156102de57600080fd5b506101c760055481565b3480156102f457600080fd5b5060005460405173ffffffffffffffffffffffffffffffffffffffff90911681526020016101d1565b34801561032957600080fd5b5061033d610338366004611cd3565b6107f6565b60405190151581526020016101d1565b6101a561035b366004611d08565b610c94565b34801561036c57600080fd5b5061033d61037b366004611cd3565b610e28565b34801561038c57600080fd5b506101c760045481565b3480156103a257600080fd5b506101c760065481565b3480156103b857600080fd5b506101a56103c7366004611a4f565b610ee8565b3480156103d857600080fd5b506101c760085481565b3480156103ee57600080fd5b506101c76103fd366004611bd0565b60036020526000908152604090205481565b34801561041b57600080fd5b506101a561042a366004611a4f565b610ef5565b34801561043b57600080fd5b506101a561044a366004611bd0565b610f2f565b610457610fe3565b600255565b8351602085012060009073ffffffffffffffffffffffffffffffffffffffff83166104e8576040517f08c379a000000000000000000000000000000000000000000000000000000000815260206004820152601060248201527f7265736f6c76657220696e76616c69640000000000000000000000000000000060448201526064015b60405180910390fd5b604080516020808201939093527fffffffffffffffffffffffffffffffffffffffff000000000000000000000000606097881b8116828401529490961b9093166054860152606880860194909452825180860390940184526088909401909152508051910120919050565b61055b610fe3565b60405133904780156108fc02916000818181858888f19350505050158015610587573d6000803e3d6000fd5b50565b610592610fe3565b60405173ffffffffffffffffffffffffffffffffffffffff8216904780156108fc02916000818181858888f193505050501580156105d4573d6000803e3d6000fd5b5050565b6105e0610fe3565b6105ea6000611064565b565b6105f4610fe3565b600591909155600655565b60025473ffffffffffffffffffffffffffffffffffffffff85166000908152600360205260409020541061068f576040517f08c379a000000000000000000000000000000000000000000000000000000000815260206004820152600f60248201527f657863656564206d6178206d696e74000000000000000000000000000000000060448201526064016104df565b600061069d8686858561045c565b905060006106ac8786846110d9565b875160208901206001549192509081906106e9908a908a908a908990869081908a9073ffffffffffffffffffffffffffffffffffffffff1661136e565b8234111561072957336108fc6106ff8534611daf565b6040518115909202916000818181858888f19350505050158015610727573d6000803e3d6000fd5b505b73ffffffffffffffffffffffffffffffffffffffff8816600090815260036020526040812080546001929061075f908490611dc2565b9091555050505050505050505050565b600080600454116107dc576040517f08c379a000000000000000000000000000000000000000000000000000000000815260206004820152601760248201527f636f6e66696775726174696f6e20696e636f727265637400000000000000000060448201526064016104df565b6000826004546107ec9190611dd5565b9150505b92915050565b6000600161080383611848565b101561081157506000919050565b8160005b81518110156108f057600082828151811061083257610832611dec565b01602001517fff000000000000000000000000000000000000000000000000000000000000001690507f410000000000000000000000000000000000000000000000000000000000000081108015906108cd57507f5a000000000000000000000000000000000000000000000000000000000000007fff00000000000000000000000000000000000000000000000000000000000000821611155b156108dd57506000949350505050565b50806108e881611e1b565b915050610815565b506002815110610c8b5760005b6002825161090b9190611daf565b811015610c895781818151811061092457610924611dec565b6020910101517fff00000000000000000000000000000000000000000000000000000000000000167fe2000000000000000000000000000000000000000000000000000000000000001480156109dc575081610981826001611dc2565b8151811061099157610991611dec565b6020910101517fff00000000000000000000000000000000000000000000000000000000000000167f8000000000000000000000000000000000000000000000000000000000000000145b15610b3557816109ed826002611dc2565b815181106109fd576109fd611dec565b6020910101517fff00000000000000000000000000000000000000000000000000000000000000167f8b000000000000000000000000000000000000000000000000000000000000001480610ab4575081610a59826002611dc2565b81518110610a6957610a69611dec565b6020910101517fff00000000000000000000000000000000000000000000000000000000000000167f8c00000000000000000000000000000000000000000000000000000000000000145b80610b21575081610ac6826002611dc2565b81518110610ad657610ad6611dec565b6020910101517fff00000000000000000000000000000000000000000000000000000000000000167f8d00000000000000000000000000000000000000000000000000000000000000145b15610b30575060009392505050565b610c77565b818181518110610b4757610b47611dec565b01602001517fff00000000000000000000000000000000000000000000000000000000000000167fef0000000000000000000000000000000000000000000000000000000000000003610c775781610ba0826001611dc2565b81518110610bb057610bb0611dec565b6020910101517fff00000000000000000000000000000000000000000000000000000000000000167fbb00000000000000000000000000000000000000000000000000000000000000148015610c68575081610c0d826002611dc2565b81518110610c1d57610c1d611dec565b6020910101517fff00000000000000000000000000000000000000000000000000000000000000167fbf00000000000000000000000000000000000000000000000000000000000000145b15610c77575060009392505050565b80610c8181611e1b565b9150506108fd565b505b50600192915050565b6000610cd784848080601f01602080910402602001604051908101604052809392919081815260200183838082843760009201919091525086925061076f915050565b905080341015610ce657600080fd5b60008484604051610cf8929190611e53565b6040519081900381206001547fc475abff000000000000000000000000000000000000000000000000000000008352600483018290526024830186905290925060009173ffffffffffffffffffffffffffffffffffffffff9091169063c475abff906044016020604051808303816000875af1158015610d7c573d6000803e3d6000fd5b505050506040513d601f19601f82011682018060405250810190610da09190611e63565b9050817f3da24c024582931cfaf8267d8ed24d13a82a8068d5bd337d30ec45cea4e506ae87878685604051610dd89493929190611e7c565b60405180910390a282341115610e2057336108fc610df68534611daf565b6040518115909202916000818181858888f19350505050158015610e1e573d6000803e3d6000fd5b505b505050505050565b80516020820120600180546040517f96e494e800000000000000000000000000000000000000000000000000000000815260048101849052600093929173ffffffffffffffffffffffffffffffffffffffff16906396e494e890602401602060405180830381865afa158015610ea2573d6000803e3d6000fd5b505050506040513d601f19601f82011682018060405250810190610ec69190611eda565b610ece575060005b610ed7846107f6565b8015610ee05750805b949350505050565b610ef0610fe3565b600455565b6006546000828152600760205260409020544291610f1291611dc2565b10610f1c57600080fd5b6000908152600760205260409020429055565b610f37610fe3565b73ffffffffffffffffffffffffffffffffffffffff8116610fda576040517f08c379a000000000000000000000000000000000000000000000000000000000815260206004820152602660248201527f4f776e61626c653a206e6577206f776e657220697320746865207a65726f206160448201527f646472657373000000000000000000000000000000000000000000000000000060648201526084016104df565b61058781611064565b60005473ffffffffffffffffffffffffffffffffffffffff1633146105ea576040517f08c379a000000000000000000000000000000000000000000000000000000000815260206004820181905260248201527f4f776e61626c653a2063616c6c6572206973206e6f7420746865206f776e657260448201526064016104df565b6000805473ffffffffffffffffffffffffffffffffffffffff8381167fffffffffffffffffffffffff0000000000000000000000000000000000000000831681178455604051919092169283917f8be0079c531659141344cd1fd0a4f28419497f9722a3daafe3b4186f6b6457e09190a35050565b600554600082815260076020526040812054909142916110f99190611dc2565b1115611161576040517f08c379a000000000000000000000000000000000000000000000000000000000815260206004820152601d60248201527f696e76616c69642077697468206d696e436f6d6d69746d656e7441676500000060448201526064016104df565b600654600083815260076020526040902054429161117e91611dc2565b116111e5576040517f08c379a000000000000000000000000000000000000000000000000000000000815260206004820152601d60248201527f696e76616c69642077697468206d6178436f6d6d69746d656e7441676500000060448201526064016104df565b6111ee84610e28565b611254576040517f08c379a000000000000000000000000000000000000000000000000000000000815260206004820152601260248201527f6e616d65206e6f7420617661696c61626c65000000000000000000000000000060448201526064016104df565b600082815260076020526040812081905561126f858561076f565b90506301e133808414611304576040517f08c379a000000000000000000000000000000000000000000000000000000000815260206004820152602160248201527f6475726174696f6e2073686f756c6420657175616c20746f203336352064617960448201527f730000000000000000000000000000000000000000000000000000000000000060648201526084016104df565b80341015610ee0576040517f08c379a000000000000000000000000000000000000000000000000000000000815260206004820152600b60248201527f696e76616c69642070617900000000000000000000000000000000000000000060448201526064016104df565b60008173ffffffffffffffffffffffffffffffffffffffff1663ddf7fcb06040518163ffffffff1660e01b8152600401602060405180830381865afa1580156113bb573d6000803e3d6000fd5b505050506040513d601f19601f820116820180604052508101906113df9190611e63565b6040805160208101929092528101859052606001604080517fffffffffffffffffffffffffffffffffffffffffffffffffffffffffffffffe08184030181529082905280516020909101207ffca247ac0000000000000000000000000000000000000000000000000000000082526004820187905230602483015260448201899052915060009073ffffffffffffffffffffffffffffffffffffffff84169063fca247ac906064016020604051808303816000875af11580156114a6573d6000803e3d6000fd5b505050506040513d601f19601f820116820180604052508101906114ca9190611e63565b90508273ffffffffffffffffffffffffffffffffffffffff16633f15457f6040518163ffffffff1660e01b8152600401602060405180830381865afa158015611517573d6000803e3d6000fd5b505050506040513d601f19601f8201168201806040525081019061153b9190611efc565b6040517f1896f70a0000000000000000000000000000000000000000000000000000000081526004810184905273ffffffffffffffffffffffffffffffffffffffff89811660248301529190911690631896f70a90604401600060405180830381600087803b1580156115ad57600080fd5b505af11580156115c1573d6000803e3d6000fd5b50506040517fd5fa2b000000000000000000000000000000000000000000000000000000000081526004810185905273ffffffffffffffffffffffffffffffffffffffff8c811660248301528a16925063d5fa2b009150604401600060405180830381600087803b15801561163557600080fd5b505af1158015611649573d6000803e3d6000fd5b50506040517f7737221300000000000000000000000000000000000000000000000000000000815273ffffffffffffffffffffffffffffffffffffffff8a169250637737221391506116a19085908e90600401611f7d565b600060405180830381600087803b1580156116bb57600080fd5b505af11580156116cf573d6000803e3d6000fd5b50506040517f28ed4f6c0000000000000000000000000000000000000000000000000000000081526004810189905273ffffffffffffffffffffffffffffffffffffffff8c81166024830152861692506328ed4f6c9150604401600060405180830381600087803b15801561174357600080fd5b505af1158015611757573d6000803e3d6000fd5b50506040517f23b872dd00000000000000000000000000000000000000000000000000000000815230600482015273ffffffffffffffffffffffffffffffffffffffff8c81166024830152604482018a9052861692506323b872dd9150606401600060405180830381600087803b1580156117d157600080fd5b505af11580156117e5573d6000803e3d6000fd5b505050508873ffffffffffffffffffffffffffffffffffffffff16857fca6abbe9d7f11422cb6ca7629fbf6fe9efb1c621f71ce8f02b9f2a230097404f8c878560405161183493929190611f96565b60405180910390a350505050505050505050565b8051600090819081905b80821015611a4657600085838151811061186e5761186e611dec565b01602001517fff000000000000000000000000000000000000000000000000000000000000001690507f80000000000000000000000000000000000000000000000000000000000000008110156118d1576118ca600184611dc2565b9250611a33565b7fe0000000000000000000000000000000000000000000000000000000000000007fff0000000000000000000000000000000000000000000000000000000000000082161015611926576118ca600284611dc2565b7ff0000000000000000000000000000000000000000000000000000000000000007fff000000000000000000000000000000000000000000000000000000000000008216101561197b576118ca600384611dc2565b7ff8000000000000000000000000000000000000000000000000000000000000007fff00000000000000000000000000000000000000000000000000000000000000821610156119d0576118ca600484611dc2565b7ffc000000000000000000000000000000000000000000000000000000000000007fff0000000000000000000000000000000000000000000000000000000000000082161015611a25576118ca600584611dc2565b611a30600684611dc2565b92505b5082611a3e81611e1b565b935050611852565b50909392505050565b600060208284031215611a6157600080fd5b5035919050565b7f4e487b7100000000000000000000000000000000000000000000000000000000600052604160045260246000fd5b600082601f830112611aa857600080fd5b813567ffffffffffffffff80821115611ac357611ac3611a68565b604051601f83017fffffffffffffffffffffffffffffffffffffffffffffffffffffffffffffffe0908116603f01168101908282118183101715611b0957611b09611a68565b81604052838152866020858801011115611b2257600080fd5b836020870160208301376000602085830101528094505050505092915050565b73ffffffffffffffffffffffffffffffffffffffff8116811461058757600080fd5b60008060008060808587031215611b7a57600080fd5b843567ffffffffffffffff811115611b9157600080fd5b611b9d87828801611a97565b9450506020850135611bae81611b42565b9250604085013591506060850135611bc581611b42565b939692955090935050565b600060208284031215611be257600080fd5b8135611bed81611b42565b9392505050565b60008060408385031215611c0757600080fd5b50508035926020909101359150565b600080600080600060a08688031215611c2e57600080fd5b853567ffffffffffffffff811115611c4557600080fd5b611c5188828901611a97565b9550506020860135611c6281611b42565b935060408601359250606086013591506080860135611c8081611b42565b809150509295509295909350565b60008060408385031215611ca157600080fd5b823567ffffffffffffffff811115611cb857600080fd5b611cc485828601611a97565b95602094909401359450505050565b600060208284031215611ce557600080fd5b813567ffffffffffffffff811115611cfc57600080fd5b610ee084828501611a97565b600080600060408486031215611d1d57600080fd5b833567ffffffffffffffff80821115611d3557600080fd5b818601915086601f830112611d4957600080fd5b813581811115611d5857600080fd5b876020828501011115611d6a57600080fd5b6020928301989097509590910135949350505050565b7f4e487b7100000000000000000000000000000000000000000000000000000000600052601160045260246000fd5b818103818111156107f0576107f0611d80565b808201808211156107f0576107f0611d80565b80820281158282048414176107f0576107f0611d80565b7f4e487b7100000000000000000000000000000000000000000000000000000000600052603260045260246000fd5b60007fffffffffffffffffffffffffffffffffffffffffffffffffffffffffffffffff8203611e4c57611e4c611d80565b5060010190565b8183823760009101908152919050565b600060208284031215611e7557600080fd5b5051919050565b6060815283606082015283856080830137600060808583010152600060807fffffffffffffffffffffffffffffffffffffffffffffffffffffffffffffffe0601f870116830101905083602083015282604083015295945050505050565b600060208284031215611eec57600080fd5b81518015158114611bed57600080fd5b600060208284031215611f0e57600080fd5b8151611bed81611b42565b6000815180845260005b81811015611f3f57602081850181015186830182015201611f23565b5060006020828601015260207fffffffffffffffffffffffffffffffffffffffffffffffffffffffffffffffe0601f83011685010191505092915050565b828152604060208201526000610ee06040830184611f19565b606081526000611fa96060830186611f19565b6020830194909452506040015291905056fea264697066735822122090089da045e31ee60d07a36e59ea80819917d4bc6df8ee85ab6db4b0bf60213164736f6c63430008110033",
  "devdoc": {
    "details": "A registrar controller for registering and renewing names at fixed cost.",
    "kind": "dev",
    "methods": {
      "owner()": {
        "details": "Returns the address of the current owner."
      },
      "renounceOwnership()": {
        "details": "Leaves the contract without owner. It will not be possible to call `onlyOwner` functions anymore. Can only be called by the current owner. NOTE: Renouncing ownership will leave the contract without an owner, thereby removing any functionality that is only available to the owner."
      },
      "transferOwnership(address)": {
        "details": "Transfers ownership of the contract to a new account (`newOwner`). Can only be called by the current owner."
      }
    },
    "version": 1
  },
  "userdoc": {
    "kind": "user",
    "methods": {},
    "version": 1
  },
  "storageLayout": {
    "storage": [
      {
        "astId": 7,
        "contract": "contracts/ethregistrar/ETHRegistrarController.sol:ETHRegistrarController",
        "label": "_owner",
        "offset": 0,
        "slot": "0",
        "type": "t_address"
      },
      {
        "astId": 3176,
        "contract": "contracts/ethregistrar/ETHRegistrarController.sol:ETHRegistrarController",
        "label": "base",
        "offset": 0,
        "slot": "1",
        "type": "t_contract(BaseRegistrarImplementation)2968"
      },
      {
        "astId": 3179,
        "contract": "contracts/ethregistrar/ETHRegistrarController.sol:ETHRegistrarController",
        "label": "mintPerWallet",
        "offset": 0,
        "slot": "2",
        "type": "t_uint256"
      },
      {
        "astId": 3183,
        "contract": "contracts/ethregistrar/ETHRegistrarController.sol:ETHRegistrarController",
        "label": "mintCount",
        "offset": 0,
        "slot": "3",
        "type": "t_mapping(t_address,t_uint256)"
      },
      {
        "astId": 3214,
        "contract": "contracts/ethregistrar/ETHRegistrarController.sol:ETHRegistrarController",
        "label": "basePrice",
        "offset": 0,
        "slot": "4",
        "type": "t_uint256"
      },
      {
        "astId": 3216,
        "contract": "contracts/ethregistrar/ETHRegistrarController.sol:ETHRegistrarController",
        "label": "minCommitmentAge",
        "offset": 0,
        "slot": "5",
        "type": "t_uint256"
      },
      {
        "astId": 3218,
        "contract": "contracts/ethregistrar/ETHRegistrarController.sol:ETHRegistrarController",
        "label": "maxCommitmentAge",
        "offset": 0,
        "slot": "6",
        "type": "t_uint256"
      },
      {
        "astId": 3222,
        "contract": "contracts/ethregistrar/ETHRegistrarController.sol:ETHRegistrarController",
        "label": "commitments",
        "offset": 0,
        "slot": "7",
        "type": "t_mapping(t_bytes32,t_uint256)"
      },
      {
        "astId": 3246,
        "contract": "contracts/ethregistrar/ETHRegistrarController.sol:ETHRegistrarController",
        "label": "root",
        "offset": 0,
        "slot": "8",
        "type": "t_bytes32"
      }
    ],
    "types": {
      "t_address": {
        "encoding": "inplace",
        "label": "address",
        "numberOfBytes": "20"
      },
      "t_bytes32": {
        "encoding": "inplace",
        "label": "bytes32",
        "numberOfBytes": "32"
      },
      "t_contract(BaseRegistrarImplementation)2968": {
        "encoding": "inplace",
        "label": "contract BaseRegistrarImplementation",
        "numberOfBytes": "20"
      },
      "t_mapping(t_address,t_uint256)": {
        "encoding": "mapping",
        "key": "t_address",
        "label": "mapping(address => uint256)",
        "numberOfBytes": "32",
        "value": "t_uint256"
      },
      "t_mapping(t_bytes32,t_uint256)": {
        "encoding": "mapping",
        "key": "t_bytes32",
        "label": "mapping(bytes32 => uint256)",
        "numberOfBytes": "32",
        "value": "t_uint256"
      },
      "t_uint256": {
        "encoding": "inplace",
        "label": "uint256",
        "numberOfBytes": "32"
      }
    }
  }
}